:100000000C944C000C946D000C946B000C946B00E1
:100010000C947C000C946B000C946B000C946B00A3
:100020000C946B000C946B000C946B000C946B00A4
:100030000C946B000C946B000C946B000C946B0094
:100040000C946B000C946B000C946B000C946B0084
:100050000C946B000C946B000C946B000C946B0074
:100060000C946B000C946B000C946B000C946B0064
:100070000C946B000C946B000C946B000C946B0054
:100080000C946B000C946B000C946B000C946B0044
:100090000C946B000C946B0011241FBECFEFD0E2C8
:1000A000DEBFCDBF11E0A0E0B1E0E2E3F6E000E0AA
:1000B0000BBF02C007900D92A630B107D9F711E02F
:1000C000A6E0B1E001C01D92AB30B107E1F70E949C
:1000D00095000C9417030C948B001F920F920FB68F
:1000E0000F9211248F9382E0809306018F910F90DD
:1000F0000FBE0F901F9018951F920F920FB60F9280
:1001000011248F9384E0809306018F910F900FBE8E
:100110000F901F9018951F920F920FB60F921124F7
:100120000F900FBE0F901F90189510920601F89433
:100130008FEF81B984B987B90E94DB010E940D025B
:10014000FDCFFC01DB01118210821D921C920895EB
:10015000CF93DF939C01DB01FA01CD91DC911197E4
:1001600080819181209719F09B838A8303C0E901E4
:1001700099838883808191818D939C93DF91CF9126
:100180000895DC01FB018D919C91119791838083EF
:10019000ED91FC911197309721F0828193818D939D
:1001A0009C930895FC010190F081E02D8081918164
:1001B0000895FC0120E080819181892B09F421E0E0
:1001C000822F0895FC010190F081E02D20E030E0C5
:1001D00005C02F5F3F4F0280F381E02D3097C9F7B4
:1001E000C90108950F931F93CF93DF93EC018B0107
:1001F00007C08281938199838883CF010E94BF02C7
:10020000E881F9813097A9F7F80111821082DF9116
:10021000CF911F910F9108950F931F938C0184E04C
:1002200090E00E941202FC01D8018D939C931382EE
:1002300012821F910F910895DF93CF9300D000D0C9
:1002400000D0CDB7DEB78FEF84B91E821D821A822F
:1002500019821C821B82CE0105960E940C01ED8141
:10026000FE8183E0808384E08183AB81BC81109731
:1002700029F01396FC93EE93129702C0FA83E98358
:10028000FC83EB83E981FA81808185B9EB81FC8174
:10029000818185B9CE0105960E940C01ED81FE8118
:1002A00085E0808386E08183AB81BC81109729F053
:1002B0001396FC93EE93129702C0FA83E983FC83B2
:1002C000EB83E981FA81808185B9EB81FC818181B1
:1002D00085B9CE0105960E940C01ED81FE8187E073
:1002E000808388E08183AB81BC81109729F01396CD
:1002F000FC93EE93129702C0FA83E983FC83EB83AD
:10030000A981BA818C9185B9EB81FC81918195B9E4
:1003100015B885B915B8FD0180E090E004C00196DC
:100320000280F381E02D3097D1F785B980E0AB2BC7
:1003300009F481E085B9CE010196BE016D5F7F4F62
:100340000E94F20029813A81F90180E090E004C026
:1003500001960280F381E02D3097D1F785B980E0D6
:10036000232B09F481E085B980E090E026960FB652
:10037000F894DEBF0FBECDBFCF91DF9108959C01F1
:100380008091810089608093810088EE93E0909352
:100390008900809388001092850010928400B19AA1
:1003A00080E090E004C0B19BFECFB19A0196821725
:1003B0009307CCF3089584B5836084BD84B58068C9
:1003C00084BD85B5826085BD8FE787BD279A089576
:1003D000EAE7F0E0808180688083808188608083A4
:1003E000ECE7F0E08081806680830895E99AEA9ADC
:1003F000EB9AEC9AEE9AE9E6F0E0808188608083DF
:100400008081806280838081806880838081826037
:100410008083808180638083089582E085B9089518
:1004200015B80895CF93DF93BC018230910510F485
:1004300062E070E0A0910901B0910A01ED01E0E0F5
:10044000F0E040E050E021C088819981861797074D
:1004500069F48A819B81309719F09383828304C069
:1004600090930A0180930901FE0134C0681779074F
:1004700038F44115510519F08417950708F4AC01BB
:10048000FE018A819B819C01E9012097E9F64115D3
:100490005105A9F1CA01861B970B049708F4BA010C
:1004A000E0E0F0E02AC08D919C91119784179507A8
:1004B000F9F46417750781F412968D919C91139746
:1004C000309719F09383828304C090930A0180933C
:1004D0000901FD0132964FC0CA01861B970BFD0131
:1004E000E80FF91F6193719302978D939C9343C01A
:1004F000FD01828193819C01D9011097A1F6809121
:10050000070190910801892B41F48091020190919B
:1005100003019093080180930701409104015091D9
:1005200005014115510541F44DB75EB780910001B9
:1005300090910101481B590B20910701309108014E
:1005400024173507B0F4CA01821B930B861797074F
:1005500080F0AB014E5F5F4F8417950750F0420F5C
:10056000531F5093080140930701F9016193719360
:1005700002C0E0E0F0E0CF01DF91CF910895CF938A
:10058000DF93009709F450C0EC0122971B821A8276
:10059000A0910901B0910A01109709F140E050E0E3
:1005A000AC17BD0708F1BB83AA83FE0121913191ED
:1005B000E20FF31FAE17BF0779F48D919C9111974D
:1005C000280F391F2E5F3F4F3983288312968D9154
:1005D0009C9113979B838A834115510571F4D093A5
:1005E0000A01C093090120C012968D919C91139726
:1005F000AD01009711F0DC01D3CFFA01D383C283A0
:1006000021913191E20FF31FCE17DF0769F4888142
:100610009981280F391F2E5F3F4FFA0131832083C4
:100620008A819B8193838283DF91CF910895F8948F
:02063000FFCFFA
:0606320020000B01000096
:00000001FF
